:020000040800F2
:100000001804002045010008BF020008BB020008D8
:10001000BD0200088D010008010B0008000000006F
:1000200000000000000000000000000005060008BD
:100030008F0100080000000079030008B1060008E5
:100040005F0100085F0100085F0100085F01000810
:100050005F0100085F0100085F0100085F01000800
:100060005F0100085F0100085F0100085F010008F0
:100070005F0100085F0100085F0100085F010008E0
:100080005F0100085F0100085F0100085F010008D0
:100090005F0100085F0100085F0100085F010008C0
:1000A0005F0100085F0100085F0100085F010008B0
:1000B000050700085F0100085F0100085F010008F4
:1000C0005F0100085F0100085F0100085F01000890
:1000D0005F010008ED0800085F0100085F010008EB
:1000E0005F0100085F0100085F0100085F01000870
:1000F0005F0100085F0100085F0100085F01000860
:100100005F0100085F0100085F0100085F0100084F
:100110005F0100085F0100085F0100085F0100083F
:100120005F0100085F0100085F0100085F0100082F
:10013000DFF80CD000F018F800480047210B000849
:10014000180400200648804706480047FEE7FEE7FF
:10015000FEE7FEE7FEE7FEE7FEE7FEE7FEE7FEE777
:10016000B506000831010008064C074D06E0E068BE
:1001700040F0010394E8070098471034AC42F6D3EE
:10018000FFF7DAFF440B0008640B0008FEE7704736
:1001900004490A6822F010020A600A6802430A60F1
:1001A0007047000000200240034A116801F0380146
:1001B00001431160704700000020024038B54FF441
:1001C0000470ADF8000018208DF803000A4D0324D8
:1001D0008DF802406946284600F010F82815ADF861
:1001E000000004208DF803008DF80240694628467F
:1001F00000F004F838BD000000080140F0B5CA78EE
:10020000002502F00F03D20601D58A7813430A783D
:100210004FF00F0E12F0FF0F4FF001021CD00468D8
:100220000F8802FA05F63740B74211D14FEA850C24
:100230000EFA0CF724EA070703FA0CF43C43CF78D4
:10024000282F02D0482F02D002E0466100E006616C
:100250006D1C082DE4D304600C88FF2C1ED9446863
:100260005FF0000606F1080702FA07F50F882F4035
:10027000AF420FD14FEA860C0EFA0CF7BC4303FADB
:100280000CF73C43CF78282F00D14561CF78482F19
:1002900000D10561761C082EE4D34460F0BD02460F
:1002A0000020D2680A4200D00120704741617047A7
:1002B0000AB10161704741617047FEE7FEE7704790
:1002C000F8B54FF4E066304600F04CF825208DF884
:1002D000000000248DF8024001258DF80350684687
:1002E00000F00EF8304600F03DF81C208DF80000BC
:1002F0008DF802408DF80350684600F001F8F8BD13
:1003000070B50F23C47801780122F4B1144C24682D
:10031000457804F4E064C4F5E064240AC4F10406FA
:10032000E3408478B5401C402C4301F1E0212301D7
:1003300081F80034007800F01F018A4040098000F5
:1003400000F1E020C0F8002170BD01F01F008240E4
:100350004809800000F1E020C0F8802170BD000055
:100360000CED00E0024908430249086070470000B4
:100370000000FA050CED00E070470000044A002977
:10038000D16901D0014300E08143D1617047000091
:1003900000100240044A0029916901D0014300E0A5
:1003A00081439161704700000010024010B500F0D9
:1003B00039F84FF48034204600F0C6F800F00CF90C
:1003C000012823D1002000F0B5F8002000F0E0F86B
:1003D000A01100F0D3F80220FFF7E6FE1020FFF78F
:1003E000D7FE4FF4E011204600F0E2F8012000F0C3
:1003F000D9F8392000F07EF80028FAD0022000F069
:10040000E1F800BF00F08EF80828FBD10121084672
:10041000FFF7B4FFBDE81040012144F20400FFF7EC
:10042000B9BF00000C48016841F00101016041685A
:100430000A4A114041600168094A1140016001689F
:1004400021F480210160416821F4FE0141604FF4F4
:100450001F01816070470000001002400000FFF89B
:10046000FFFFF6FE30B51F494A6812F00C031E4A22
:1004700003D0042B01D0082B21D002604A680F233F
:100480001A4C03EA1212A35C0268DA4042604B681D
:10049000072505EA1323E35C22FA03F383604B6824
:1004A00005EAD323E35CDA40C2604968032303EA28
:1004B0009131231F595CB2FBF1F1016130BD4A68F3
:1004C0004B6802F470124FF0020413F4803F04EB07
:1004D000924202D04B689B0301D5054B00E0024BD2
:1004E0005A43CAE70010024000127A0004000020BC
:1004F00000093D000246002053090949012B0BD099
:10050000022B0BD0D1F8241002F01F0201239340DC
:100510000B4200D0012070470968F5E7096AF3E74C
:10052000001002400248406800F00C0070470000D4
:1005300000100240034A516821F0F001014351606C
:1005400070470000001002400B490A6822F4803214
:100550000A600A6822F480220A60B0F5803F07D062
:10056000B0F5802F03D1086840F4A02008607047E0
:10057000086840F48030F9E700100240034A5168EF
:1005800021F4E06101435160704700000010024017
:1005900003494A6822F4605242EAC000486070474A
:1005A0000010024001490866704700000000424206
:1005B000034A5368084323F47C1318435060704780
:1005C00000100240034A516821F0030101435160C9
:1005D000704700000010024018B500204FF4A064DE
:1005E00000903120FFF786FF0099491C0091A1423D
:1005F00001D00028F5D03120FFF77CFF002800D083
:10060000012018BD704700000CB50021264801915B
:100610000091026842F4803202604FF4A0630268E5
:1006200002F400320092019A521C0192009A12B90F
:10063000019A9A42F3D10268920333D501210091C5
:100640001A490A6842F010020A600A6822F003029E
:100650000A600A6842F002020A604168416041682B
:100660004160416841F480614160416821F47C113E
:100670004160416841F4E8114160016841F08071D6
:10068000016001688901FCD5416821F003014160E6
:10069000416841F0020141604168C1F381010229D2
:1006A000FAD10CBD00910CBD0010024000200240A8
:1006B000704700000F4810B5016841F0010101606A
:1006C00041680D4A1140416001680C4A11400160C7
:1006D000016821F480210160416821F4FE0141603C
:1006E0004FF41F018160FFF78FFF05494FF0006055
:1006F000086010BD001002400000FFF8FFFFF6FE8A
:1007000008ED00E038B50020ADF8000002214C07EC
:10071000204600F02AF800281FD0104D102128464E
:10072000FFF7BDFDC0F10100C2B210212846FFF75E
:10073000BFFD204600F017F8ADF80000BDF800003E
:1007400049F64041084481B2204600F05BF820465B
:10075000BDE83840022100F003B838BD0008014070
:10076000C94301827047808E704702460020138A79
:1007700092890B4202EA010202D0002A00D0012035
:100780007047000030B5028C22F001020284028C16
:100790008388048B22F0020224F073050C882C431A
:1007A0000D8915434A882A43114DA8420BD0114D9B
:1007B000A84208D0104DA84205D0104DA84202D042
:1007C0000F4DA8420DD122F008054A8923F4407349
:1007D0002A4322F004058A882A438D891D43CB8948
:1007E0002B4383800483C9888186028430BD000046
:1007F000002C014000340140004001400044014011
:10080000004801408186704730B502881B4B1C4C64
:1008100098420DD0A0420BD0B0F1804F08D0194DB6
:10082000A84205D0184DA84202D0184DA84203D1C5
:1008300022F070054A882A43154DA84206D0154D6E
:10084000A84203D022F44075CA882A4302808A88CD
:1008500082850A88028598420AD0A04208D00E4AB2
:10086000904205D00D4A904202D00D4A904201D1EB
:10087000097A01860121818230BD0000002C0140EF
:10088000003401400004004000080040000C00401B
:1008900000100040001400400040014000440140AE
:1008A0000048014030B587B04FF6FF700024ADF826
:1008B0001400ADF810404FF08045ADF81640ADF88B
:1008C000124004A92846FFF79FFFADF80040012021
:1008D000ADF8020049F64040ADF80600ADF808401A
:1008E00069462846FFF74EFF07B030BD10B50D4CE6
:1008F00040F22551204600F05AF8002811D0204639
:1009000000F0F6F8C1B20A2906D0002909D0204625
:10091000BDE8104000F0F0B8BDE8104002A000F0C3
:10092000D3B810BD003801400A5265636569766925
:100930006E672050726F6365737320436F6D706CC8
:1009400065746564210A00000029818902D041F4A0
:10095000005101E021F40051818170471FB54FF42F
:10096000165000900020ADF80400ADF80600ADF878
:100970000800ADF80C000C20084CADF80A006946E0
:10098000204600F04BF8012240F22551204600F0AD
:100990002DF801212046FFF7D7FF1FBD0038014089
:1009A0000246002012880A4200D00120704730B56C
:1009B00001F01F0201240025C1F3421304FA02F2E0
:1009C000012B0FD0022B0FD0838A4FEA1121008810
:1009D000134204FA01F400EA040001D000B1012539
:1009E000284630BD8389F0E7038AEEE710B5C1F3EE
:1009F000421301F01F040121A140012B07D0022B5B
:100A000007D01430002A026805D00A4304E00C30F5
:100A1000F8E71030F6E78A43026010BD30B50446AF
:100A2000008A85B00D464CF6FF710840E988014305
:100A30002182A1894EF6F3100140A8882A8910432B
:100A40006A890A431043A081A08A4FF6FF410840FB
:100A5000A9890143A1826846FFF704FD1948844231
:100A600001D1039800E00298A189090400EBC001BC
:100A700001EB0010296801D5490000E08900B0FBB6
:100A8000F1F06422B0FBF2F109010B096FF01805D7
:100A90006B4300EB8300A3891D044FF0320306D59E
:100AA00003EBC000B0FBF2F000F0070005E003EB41
:100AB0000010B0FBF2F000F00F000843208105B0F9
:100AC00030BD00000038014070B50446074D09E014
:100AD000284600F011F840212846FFF761FF002862
:100AE000F9D0641C21780029F2D170BD0038014092
:100AF0008088C0F308007047C1F308018180704707
:100B0000FEE702E008C8121F08C1002AFAD17047A8
:100B10007047002001E001C1121F002AFBD170477D
:100B2000FFF744FCFFF74AFBFFF7CAFBFFF716FF8E
:100B3000FFF7B8FE024C01212046FFF7B7FBFAE7AA
:100B400000080140640B00080000002014000000B1
:100B5000020B0008780B00081400002004040000B9
:100B6000120B000802040608000000000102030442
:080B7000010203040607080955
:0400000508000131BD
:00000001FF
