:020000040800F2
:100000002004002045010008190800081508000810
:1000100017080008E5060008C511000800000000E8
:10002000000000000000000000000000610B00085C
:10003000E706000800000000D50800080D0C0008C5
:100040005F0100085F0100085F0100085F01000810
:100050005F0100085F0100085F0100085F01000800
:100060005F0100085F0100085F0100085F010008F0
:100070005F0100085F0100085F0100085F010008E0
:100080005F0100085F0100085F0100085F010008D0
:100090005F0100085F0100085F0100085F010008C0
:1000A0005F0100085F0100085F0100085F010008B0
:1000B000610C00085F0100085F0100085F01000893
:1000C0005F0100085F0100085F0100085F01000890
:1000D0005F010008ED0E00085F0100085F010008E5
:1000E0005F0100085F0100085F0100085F01000870
:1000F0005F0100085F0100085F0100085F01000860
:100100005F0100085F0100085F0100085F0100084F
:100110005F0100085F0100085F0100085F0100083F
:100120005F0100085F0100085F0100085F0100082F
:10013000DFF80CD000F0B4FA00480047AD1A000810
:10014000200400200648804706480047FEE7FEE7F7
:10015000FEE7FEE7FEE7FEE7FEE7FEE7FEE7FEE777
:10016000110C000831010008D2B201E000F8012BA7
:10017000491EFBD270470022F6E710B513460A4627
:1001800004461946FFF7F0FF204610BD2DE9FE4F4B
:10019000804681EA0300C00F0C46009021F0004128
:1001A00023F00045B8EB0200A94105D240462146A4
:1001B00090461C460B46024623F00040104347D0B1
:1001C000270DC7F30A00C3F30A510290401A0190A9
:1001D00040286BDAC3F3130040F4801B009892466A
:1001E00020B10023D2EB030A63EB0B0B01985946B5
:1001F000C0F14002504600F033F906460D46504625
:100200005946019A00F03BF910EB080061410024C7
:1002100087EA115284EAE7731A4340D0009A62B326
:10022000019A012A4FEA075215DC001B61EB02011B
:100230004FF0004202EA0752CDE90042001C41F5AE
:10024000801132462B4600F03BF903B0BDE8F08F39
:1002500040462146F9E7001B61EB0201001C41F515
:10026000801300185B412018A2F5001747EB03012B
:1002700040EAD570B6196D4111E06D084FEA3606B7
:1002800045EAC0754FEA0752001B61EB0201001CF2
:1002900041F5801149084FEA3000001951413246BA
:1002A0002B4603B0BDE8F04F00F0FBB800980122E8
:1002B00040000023D0EB020263EBE073009821467C
:1002C0004FEAE074B8EB000061EB0401E9E783F06A
:1002D00000435BE781F0004158E72DE9F04D81EAEA
:1002E000030404F0004B21F0004514464FF0000ACF
:1002F00023F0004150EA050220D054EA01021DD04B
:10030000C5F30A570246C5F31303C1F31300C1F343
:100310000A5640F4801543F48013A7EB0608101B1F
:10032000D64608F2FD3873EB050002D308F1010848
:1003300001E092185B41B8F1000F03DA002001469A
:10034000BDE8F08D00204FF48011064684460EE093
:10035000171B73EB050705D3121B63EB050306435D
:100360004CEA010C49084FEA300092185B4150EA10
:100370000107EDD152EA030012D082EA040083EAB9
:100380000501084305D0101BAB4106D20122002312
:1003900006E000224FF0004302E06FF0010253102C
:1003A0001AEB06004CEB085110EB0A0041EB0B0175
:1003B000BDE8F04D00F075B80EB540F23341029142
:1003C0000021CDE900110A460B4600F079F803B090
:1003D00000BD30B50B46014600202022012409E073
:1003E00021FA02F59D4205D303FA02F5491B04FAEE
:1003F00002F52844151EA2F10102F1DC30BD2DE901
:10040000F05F0546002092469B4688460646814698
:1004100040241BE0284641464746224600F052F958
:1004200053465A46C01A914110D3114618462246E7
:1004300000F016F82D1A67EB01084F4622460120FE
:10044000002100F00DF817EB00094E41201EA4F129
:100450000104DFDC484631462A464346BDE8F09FAA
:10046000202A04DB203A00FA02F100207047914074
:10047000C2F1200320FA03F3194390407047202A69
:1004800006DBCB17203A41FA02F043EAE07306E0BC
:1004900041FA02F3D040C2F12002914008431946CC
:1004A000704710B5141E73F1000408DA401C41F1C6
:1004B000000192185B411A4301D120F0010010BDE8
:1004C0002DE9F04D92469B4611B1B1FA81F202E05E
:1004D000B0FA80F220329046FFF7C2FF04460F4682
:1004E00040EA0A0041EA0B0153465A46084313D03A
:1004F000114653EA010019D0C8F14002504600F0FD
:10050000E1F805460E46504659464246FFF7A8FF19
:10051000084305D0012004E020463946BDE8F08DAF
:100520000020054346EAE0762C4337430A986305EA
:10053000E40AA0EB08000022FD0A44EA47540A300E
:1005400002D500200146E9E7010510196941DDE9FE
:10055000084500196941BDE8F04DA2E72DE9FE4FBD
:1005600081EA030404F0004421F0004100944FF0BC
:10057000000B23F0004350EA01045ED052EA03046A
:100580005BD0C3F30A54C1F30A552C44A4F2F334EC
:100590000194A0FB0254C1F3130141F48011C3F391
:1005A000130343F4801301FB024400FB034E840A4F
:1005B000970A44EA815447EA8357A4FB07680295E7
:1005C0008D0A05FB07854FEA932C04FB0C54270585
:1005D000029D4FEA065847EA1637B5EB08056EEB61
:1005E000070C870E920E47EA811742EA8312A7FB97
:1005F0000201B6EB0B0164EB00042B0D43EA0C3354
:100600005E1844EB1C50DA465146E7FB0201C5F385
:1006100013044FEA0B3343EA14534FEA0432019CAC
:1006200043EA0603A4F10C040294009CCDE900B453
:10063000FFF746FF03B0BDE8F08F00200146F9E761
:10064000C1F30A52C1F3130140F2FF3341F48011A8
:100650009A4202DA00200146704740F233439A4240
:10066000A2F2334202DC524200F02CB8FFF7F8BE8F
:1006700030B5041E71F1000404DB4FF00044404229
:1006800064EB0101141E73F1000405DB1C464FF0FE
:100690000043524263EB0403994208BF904230BDCD
:1006A000064C074D06E0E06840F0010394E80700BF
:1006B00098471034AC42F6D3FFF73EFDC41A000849
:1006C000E41A0008202A04DB203A21FA02F0002173
:1006D000704721FA02F3D040C2F120029140084352
:1006E00019467047FEE7704704490A6822F0100275
:1006F0000A600A6802430A60704700000020024056
:10070000034A116801F0380101431160704700008D
:100710000020024038B54FF40070ADF800001820FA
:100720008DF803000F4D03248DF8024069462846DA
:1007300000F01AF82815ADF8000004208DF8030029
:100740008DF802406946284600F00EF81021ADF8F9
:1007500000108DF803108DF802406946284600F01D
:1007600003F838BD00080140F0B5CA78002502F052
:100770000F03D20601D58A7813430A784FF00F0E83
:1007800012F0FF0F4FF001021CD004680F8802FA2C
:1007900005F63740B74211D14FEA850C0EFA0CF737
:1007A00024EA070703FA0CF43C43CF78282F02D041
:1007B000482F02D002E0466100E006616D1C082D62
:1007C000E4D304600C88FF2C1ED944685FF0000657
:1007D00006F1080702FA07F50F882F40AF420FD144
:1007E0004FEA860C0EFA0CF7BC4303FA0CF73C43B5
:1007F000CF78282F00D14561CF78482F00D10561EF
:10080000761C082EE4D34460F0BD0AB10161704744
:1008100041617047FEE7FEE77047F8B54FF4E066C8
:10082000304600F04DF825208DF8000000248DF8AA
:10083000024001258DF80350684600F00FF830465D
:1008400000F03EF81C208DF800008DF802408DF875
:100850000350684600F002F8F8BD000070B50F23A1
:10086000C47801780122F4B1144C2468457804F46A
:10087000E064C4F5E064240AC4F10406E34084782B
:10088000B5401C402C4301F1E021230181F80034E4
:10089000007800F01F018A404009800000F1E0204C
:1008A000C0F8002170BD01F01F008240480980009F
:1008B00000F1E020C0F8802170BD00000CED00E0E8
:1008C0000249084302490860704700000000FA0529
:1008D0000CED00E070470000044A0029D16901D006
:1008E000014300E08143D1617047000000100240E5
:1008F000044A0029916901D0014300E081439161DC
:10090000704700000010024010B500F039F84FF4B5
:100910008034204600F0C6F800F00CF9012823D1FD
:10092000002000F0B5F8002000F0E0F8A01100F081
:10093000D3F80220FFF7E4FE1020FFF7D5FE4FF4B6
:10094000E011204600F0E2F8012000F0D9F839204B
:1009500000F07EF80028FAD0022000F0E1F800BF95
:1009600000F08EF80828FBD101210846FFF7B4FFFC
:10097000BDE81040012144F20400FFF7B9BF0000B8
:100980000C48016841F00101016041680A4A1140C8
:1009900041600168094A11400160016821F4802129
:1009A0000160416821F4FE0141604FF41F01816044
:1009B00070470000001002400000FFF8FFFFF6FE45
:1009C00030B51F494A6812F00C031E4A03D0042BAD
:1009D00001D0082B21D002604A680F231A4C03EA89
:1009E0001212A35C0268DA4042604B68072505EAF0
:1009F0001323E35C22FA03F383604B6805EAD323F5
:100A0000E35CDA40C2604968032303EA9131231FA3
:100A1000595CB2FBF1F1016130BD4A684B6802F4E8
:100A200070124FF0020413F4803F04EB924202D0A4
:100A30004B689B0301D5054B00E0024B5A43CAE7C4
:100A40000010024000127A000C00002000093D0056
:100A50000246002053090949012B0BD0022B0BD071
:100A6000D1F8241002F01F02012393400B4200D062
:100A7000012070470968F5E7096AF3E700100240B2
:100A80000248406800F00C0070470000001002406F
:100A9000034A516821F0F0010143516070470000A2
:100AA000001002400B490A6822F480320A600A688A
:100AB00022F480220A60B0F5803F07D0B0F5802F85
:100AC00003D1086840F4A02008607047086840F42B
:100AD0008030F9E700100240034A516821F4E061D8
:100AE00001435160704700000010024003494A680A
:100AF00022F4605242EAC000486070470010024091
:100B0000014908667047000000004242034A5368EA
:100B1000084323F47C1318435060704700100240D0
:100B2000034A516821F003010143516070470000FE
:100B30000010024018B500204FF4A064009031204E
:100B4000FFF786FF0099491C0091A14201D00028BF
:100B5000F5D03120FFF77CFF002800D0012018BD20
:100B6000704700000CB500212648019100910268F1
:100B700042F4803202604FF4A063026802F4003253
:100B80000092019A521C0192009A12B9019A9A425B
:100B9000F3D10268920333D5012100911A490A6802
:100BA00042F010020A600A6822F003020A600A6832
:100BB00042F002020A604168416041684160416858
:100BC00041F480614160416821F47C1141604168D9
:100BD00041F4E8114160016841F0807101600168F1
:100BE0008901FCD5416821F003014160416841F071
:100BF000020141604168C1F381010229FAD10CBDB3
:100C000000910CBD0010024000200240704700001F
:100C10000F4810B5016841F00101016041680D4ABB
:100C20001140416001680C4A11400160016821F4E3
:100C300080210160416821F4FE0141604FF41F01F1
:100C40008160FFF78FFF05494FF00060086010BD1D
:100C5000001002400000FFF8FFFFF6FE08ED00E084
:100C600038B54FF08045284600F061F8ADF8000037
:100C70000221284600F05DF8002846D0234C244B82
:100C80006188E08881420CD1012210211846FFF7CB
:100C9000BCFDBDF80000401E81B2284600F0A4F85B
:100CA00031E0A18881420CD1002210211846FFF7C3
:100CB000ACFDBDF80000401E81B2284600F094F85B
:100CC00019E0207840B1012210211846FFF79DFD60
:100CD000BDF80000618807E0002210211846FFF7E8
:100CE00094FDBDF80000A188084481B2284600F0B8
:100CF0007BF8207838B1002020702846BDE83840C5
:100D0000022100F007B80120F6E738BD00000020FE
:100D100000080140C943018270470029018802D0C0
:100D200041F0010101E021F0010101807047808E56
:100D3000704702460020138A92890B4202EA0102A0
:100D400002D0002A00D001207047002A828901D0F9
:100D50000A4300E08A4382817047000030B5028C6C
:100D600022F001020284028C8388048B22F00202AA
:100D700024F073050C882C430D8915434A882A43B7
:100D8000114DA8420BD0114DA84208D0104DA842D9
:100D900005D0104DA84202D00F4DA8420DD122F02F
:100DA00008054A8923F440732A4322F004058A88FF
:100DB0002A438D891D43CB892B4383800483C988B3
:100DC0008186028430BD0000002C014000340140C7
:100DD000004001400044014000480140028B22F0E5
:100DE00008020A43028370478186704730B5028843
:100DF0001B4B1C4C98420DD0A0420BD0B0F1804F41
:100E000008D0194DA84205D0184DA84202D0184D5F
:100E1000A84203D122F070054A882A43154DA84202
:100E200006D0154DA84203D022F44075CA882A4343
:100E300002808A8882850A88028598420AD0A04268
:100E400008D00E4A904205D00D4A904202D00D4A79
:100E5000904201D1097A01860121818230BD0000D2
:100E6000002C014000340140000400400008004014
:100E7000000C004000100040001400400040014001
:100E8000004401400048014030B587B04FF6FF7084
:100E90000024ADF81400ADF810404FF08045ADF8D7
:100EA0001640ADF8124004A92846FFF79FFFADF8A1
:100EB00000400120ADF8020049F64040ADF80600C0
:100EC000ADF8084069462846FFF748FF002128464C
:100ED000FFF784FF012202212846FFF736FF012198
:100EE0002846FFF71AFF07B030BD00002DE9F04398
:100EF00099B064216846FFF73EF9374D40F225511D
:100F0000284600F0B6F800284CD0284600F052F9E8
:100F1000C1B2324C642951D0652946D0732905D01D
:100F200077290AD1608800F57A7002E06088A0F520
:100F30007A706080E288101AA080284600F03EF99E
:100F40006688A48826493019B1FBF0F0FFF734FA1F
:100F5000074688462046FFF72FFA04460D463046DE
:100F6000FFF72AFA8946064622462B46FFF70EF976
:100F700002460B4630464946FFF7AFF904460D4698
:100F80003A46434617A1684600F01EF9684600F04D
:100F9000FDF822462B4618A1684600F015F9684670
:100FA00000F0F4F819B0BDE8F083E0884008E08074
:100FB000608840086080A0884008BDE7E2884FF65E
:100FC000FF7000EA4202E280628800EA4202628028
:100FD000A28800EA4200AFE700380140000000208C
:100FE00000A24A040A4672657175656E63793A25F6
:100FF0006C6620487A0A00000A44756379207261A1
:1010000074696F3A256C660A000000000029818926
:1010100002D041F4005101E021F400518181704778
:101020001FB54FF4165000900020ADF80400ADF845
:101030000600ADF80800ADF80C000C20084CADF827
:101040000A006946204600F04BF8012240F2255183
:10105000204600F02DF801212046FFF7D7FF1FBDE5
:10106000003801400246002012880A4200D00120C8
:10107000704730B501F01F0201240025C1F342136F
:1010800004FA02F2012B0FD0022B0FD0838A4FEA11
:1010900011210088134204FA01F400EA040001D08F
:1010A00000B10125284630BD8389F0E7038AEEE7C9
:1010B00010B5C1F3421301F01F040121A140012B1F
:1010C00007D0022B07D01430002A026805D00A434B
:1010D00004E00C30F8E71030F6E78A43026010BDF8
:1010E00030B50446008A85B00D464CF6FF710840C5
:1010F000E98801432182A1894EF6F3100140A888B6
:101100002A8910436A890A431043A081A08A4FF6B6
:10111000FF410840A9890143A1826846FFF750FCBE
:101120001948844201D1039800E00298A18909047A
:1011300000EBC00101EB0010296801D5490000E077
:101140008900B0FBF1F06422B0FBF2F109010B0958
:101150006FF018056B4300EB8300A3891D044FF06B
:10116000320306D503EBC000B0FBF2F000F007003D
:1011700005E003EB0010B0FBF2F000F00F000843B5
:10118000208105B030BD00000038014070B5044634
:10119000074D09E0284600F011F840212846FFF7E6
:1011A00061FF0028F9D0641C21780029F2D170BDBC
:1011B000003801408088C0F308007047C1F308017F
:1011C00081807047FEE700000FB4084B10B504A9FA
:1011D00002AA039800F0CEF8044602A9002000F00D
:1011E00060FC204610BC5DF814FB0000A31A000848
:1011F00002E008C8121F08C1002AFAD170477047E0
:10120000002001E001C1121F002AFBD1704700003D
:101210002DE9FF5FDDE90220010DDDF838B0024362
:1012200018D044F61050A1F2FF3141430D140F982D
:10123000012820D0A5EB0B00401C5FEA000A4FF00C
:101240000004474EDFF81C91A046504616D5CAF15F
:10125000000728E00F98012443A2012808D00021AC
:1012600000980F9BC0E90021C0E90243BDE8FF9F41
:101270006FEA0B01F4E7CBF10000DEE7074612E06E
:10128000F80707D02246334640464946FFF766F93D
:10129000804689462246334610461946FFF75EF9D6
:1012A00004460E467F10002FEAD1DDE90201BAF1B3
:1012B000000F42464B4602DAFFF750F901E0FFF714
:1012C0000CF804460E460022284BFFF7D1F903D84C
:1012D0004FF0FF30014607E00022254B2046314603
:1012E000FEF754FFFFF7ACF9102409E0002C0ADBED
:1012F0000A220023FFF783F8019B30321A55641E3F
:1013000050EA0102F2D1641C019AC4F111031444A1
:101310000F9A012A03D0012208430DD10AE00843A5
:1013200004D000204FF0110B0F9080E7A3EB0B05CA
:101330006D1E0DE05B4504DD4FF0000205F1010577
:1013400004E003DA4FF00002A5F10105002AECD019
:1013500000980F99C0E90231C0E9004586E7000016
:10136000000024400000F03F300000000000F04387
:101370000000E03F2DE9FF4F95B09B4689460646A9
:1013800000250FE2252877D100242746F84A0121BD
:10139000059400E0044316F8013F203B01FA03F0F6
:1013A0001042F7D130782A2811D06FF02F0330780F
:1013B000A0F13002092A16D8059A44F0020402EB83
:1013C000820203EB42021044761C0590EFE759F8C5
:1013D000042B0592002A03DA504244F4005405908D
:1013E00044F00204761C30782E2816D116F8010F2E
:1013F00044F004042A280DD06FF02F023078A0F1B9
:101400003003092B09D807EB870302EB4303C71806
:10141000761CF3E759F8047B761C30786C280FD0E3
:1014200006DC4C2817D068280DD06A2814D104E0B7
:10143000742810D07A280FD10DE044F400140AE08B
:1014400044F4801401E044F440147278824202D1E2
:1014500004F58014761C761C307866280BD013DCDB
:10146000582877D009DC002875D04528F6D04628C2
:10147000F4D047281AD19DE118E0632835D06428BC
:1014800079D0652812D195E1702873D008DC6728DF
:10149000F1D069286FD06E280DD06F2806D1B5E045
:1014A00073282CD0752875D0782874D05A4617998F
:1014B00090476D1C75E1C4F30250022809D003283F
:1014C0000DD0D9F8001004280DD00D6009F10409E1
:1014D00067E1D9F80010EA17C1E90052F6E7D9F838
:1014E00000100D80F2E70D70F0E719F8041B8DF87D
:1014F000001000208DF80100EA46012003E059F8B1
:1015000004AB4FF0FF3061074FF0000102D40DE053
:1015100008F101018846B9420FDA8045F8DB1AF874
:1015200008100029F4D108E008F101018846814241
:10153000FADB1AF808100029F6D105985B46A0EBF3
:10154000080721463846179A00F094FA284400EB21
:10155000080507E04DE029E10DE01AF8010B5A46B5
:1015600017999047B8F10108F7D25B4621463846F3
:10157000179A13E142E00A220092C4F302524FF09C
:10158000000A022A08D059F804CB032A4FEAEC716A
:101590000AD00DE029E02AE009F1070121F0070255
:1015A000F2E802C1914609E00FFA8CFC4FEAEC71B7
:1015B000042A03D14FFA8CFC4FEAEC71002907DAB8
:1015C0000A460021DCF1000C61EB02012D2202E051
:1015D000220504D52B228DF80420012203E0E20726
:1015E00001D02022F7E7904659E00A2102E01022BC
:1015F0000DE010214FF0000A00910BE010224FF097
:10160000000A44F004040827009203E008224FF087
:10161000000A0092C4F30252022A05D059F804CB02
:101620000021032A08D009E009F1070121F007028F
:10163000F2E802C1914605E01FFA8CFC042A01D1B0
:101640000CF0FF0C4FF00008220728D5702806D0B8
:10165000009B83F0100353EA0A0305D00EE04022FA
:101660008DF80420012208E05CEA010206D0302255
:101670008DF804208DF8050002229046009B83F02F
:10168000080353EA0A030AD15CEA010201D16207A6
:1016900005D530228DF804204FF001087F1E582810
:1016A00004D034A003900EA802900DE036A0F9E714
:1016B00053466046009AFEF7A2FE84460398825C79
:1016C0000298401E029002705CEA0100F0D102987C
:1016D00006A9081A00F1200A600702D524F4803414
:1016E00000E00127574502DDA7EB0A0000E00020DB
:1016F00000EB0A01009005984144401A0590E00370
:1017000006D45B462146179A059800F0B3F90544C4
:10171000002706E001A85A46C05D179990476D1C46
:101720007F1C4745F6DBE0030CD55B462146179A44
:10173000059800F09FF9054404E030205A461799B7
:1017400090476D1C0099481E00900029F5DC08E0C8
:10175000029802995A460078491C029117999047BD
:101760006D1CBAF10001AAF1010AF1DC65E100008B
:101770000928010030313233343536373839616267
:10178000636465660000000030313233343536372B
:1017900038394142434445460000000000F058F902
:1017A0000544761C307800287FF4ECAD19B028464B
:1017B000BDE8F08F620700D4062709F1070222F086
:1017C000070CFCE80223E14603F000485FEA080C3E
:1017D00002D00FF2702C0DE05FEA045C02D50FF22C
:1017E000682C07E05FEAC47C02D00FF2602C01E0B5
:1017F000AFF2700C4FF0FF3823F00043CDF850C02B
:1018000065280CD006DC452809D046281DD047287D
:101810003DD13DE0662818D067287ED138E0002110
:10182000112F01DB112000E0781CCDE9000106A991
:101830000EA8FFF7EDFCDDE90F010E9A03910021E0
:10184000009207F1010A04914DE04FF0004000972B
:10185000CDE9011006A90EA8FFF7DAFCDDE90F02B9
:1018600003920E9B11990022DDF80CA000930492C4
:1018700011B9791C00EB010AB7EB0A0004D4C0F1DE
:10188000FF3007F1010A0490AAEB0700019044E041
:10189000012F00DA01270021112F01DD112000E0C6
:1018A0003846CDE9000106A90EA8FFF7B1FCDDE935
:1018B0000F010E9A0391002104910092BA4621076C
:1018C0000CD40399514500DA8A46BAF1010F05DDBF
:1018D000009AAAF10101515C302908D0B84202DA1D
:1018E00010F1040F06DA0121CDE9011015E0AAF18B
:1018F0000101E9E7002805DC049901440491AAEB01
:10190000000102E0411C514500DD8A460499401A5D
:10191000401C01904FF000400290200704D4019831
:10192000504501DBCDF8048000208DF84F0002986F
:101930000DF14F07B0F1004F25D02B200E900298EB
:101940004FF0020800280CDA404202902D200E9041
:1019500007E00A210298FEF73CFD3031029007F8BB
:10196000011DB8F10001A8F10108F2DC029800287D
:10197000EFD1791E0E980870307800F0200040F00A
:10198000450007F8020D12A8C01B00F107081498C3
:10199000007800B1012000EB0A01019801EBE07131
:1019A00005984144401A401E0590E00306D45B466A
:1019B0002146179A059800F05DF8054414980078C0
:1019C00018B15A46179990476D1CE00324D55B4621
:1019D0002146179A059800F04DF805441CE004983C
:1019E000002807DBDDE90301884203DD0098405C45
:1019F000179901E0179930205A469047049805F14D
:101A00000105401C04900198401E019004D12E2035
:101A10005A46179990476D1CBAF10001AAF1010AC4
:101A2000DDDC05E017F8010B5A46179990476D1C4D
:101A3000B8F10001A8F10108F4DC5B462146179AD1
:101A40000598ABE62D0000002B00000020000000F0
:101A50002DE9F041044600251E461746880404D4AB
:101A600005E039462020B0476D1C641EF9D5284694
:101A7000BDE8F0812DE9F041044600251E46904660
:101A8000C80301D5302700E02027880404D505E0ED
:101A900041463846B0476D1C641EF9D52846BDE85E
:101AA000F0810A68531C0B6010707047FEF72CFF22
:101AB000FEF730FEFEF7B1FEFFF7B2FAFFF7E4F9EA
:101AC000FEE70000E41A0008000000201C000000EF
:101AD000F0110008001B00081C0000200404000096
:101AE000001200080000881388131027020406085B
:101AF00000000000010203040102030406070809B4
:0400000508000131BD
:00000001FF
